:100000000C9413030C943B030C943B030C943B03A0
:100010000C943B030C943B030C943B030C943B0368
:100020000C943B030C943B030C943B030C943B0358
:100030000C943B030C943B030C943B030C943B0348
:100040000C94EE0D0C943B030C943B030C943B037B
:100050000C943B030C943B030C943B030C943B0328
:100060000C943B030C943B0300000000003E5B4FEC
:100070005B3E3E6B4F6B3E1C3E7C3E1C183C7E3C08
:10008000181C577D571C1C5E7F5E1C00183C180016
:10009000FFE7C3E7FF0018241800FFE7DBE7FF30A6
:1000A000483A060E2629792926407F050507407F14
:1000B00005253F5A3CE73C5A7F3E1C1C08081C1C87
:1000C0003E7F14227F22145F5F005F5F06097F017D
:1000D0007F006689956A606060606094A2FFA29468
:1000E00008047E040810207E201008082A1C080836
:1000F0001C2A08081E101010100C1E0C1E0C303884
:100100003E3830060E3E0E06000000000000005F84
:1001100000000007000700147F147F14242A7F2AA0
:100120001223130864623649562050000807030062
:10013000001C2241000041221C002A1C7F1C2A08AE
:10014000083E080800807030000808080808000011
:1001500060600020100804023E5149453E00427F85
:10016000400072494949462141494D331814127FD4
:100170001027454545393C4A494931412111090774
:100180003649494936464949291E000014000000F5
:1001900040340000000814224114141414140041C7
:1001A00022140802015909063E415D594E7C121184
:1001B000127C7F494949363E414141227F414141BC
:1001C0003E7F494949417F090909013E4141517337
:1001D0007F0808087F00417F41002040413F017FA8
:1001E000081422417F404040407F021C027F7F0470
:1001F00008107F3E4141413E7F090909063E4151B9
:10020000215E7F09192946264949493203017F01A8
:10021000033F4040403F1F2040201F3F4038403FA9
:10022000631408146303047804036159494D4300BF
:100230007F4141410204081020004141417F0402F6
:10024000010204404040404000030708002054548D
:1002500078407F284444383844444428384444286B
:100260007F385454541800087E090218A4A49C78BE
:100270007F0804047800447D40002040403D007F1A
:100280001028440000417F40007C047804787C08FA
:100290000404783844444438FC18242418182424CE
:1002A00018FC7C08040408485454542404043F44B3
:1002B000243C4040207C1C2040201C3C4030403CE2
:1002C00044281028444C9090907C4464544C440042
:1002D00008364100000077000000413608000201A6
:1002E0000204023C2623263C1EA1A161123A404092
:1002F000207A38545455592155557941225454780F
:1003000042215554784020545579400C1E527212A7
:100310003955555559395454545939555454580030
:1003200000457C410002457D420001457C407D1234
:1003300011127DF0282528F07C5455450020545496
:100340007C547C0A097F4932494949323A44444441
:100350003A324A4848303A4141217A3A424020787C
:10036000009DA0A07D3D4242423D3D4040403D3C7D
:1003700024FF2424487E4943662B2FFC2F2BFF09A2
:1003800029F620C0887E0903205454794100004496
:100390007D413048484A32384040227A007A0A0A81
:1003A000727D0D19317D2629292F282629292926F4
:1003B00030484D4020380808080808080808382F39
:1003C00010C8ACBA2F102834FA00007B00000814C3
:1003D0002A142222142A14085500550055AA55AA99
:1003E00055AAFF55FF55FF000000FF00101010FF39
:1003F00000141414FF001010FF00FF1010F010F094
:10040000141414FC001414F700FF0000FF00FF1484
:1004100014F404FC141417101F10101F101F1414D0
:10042000141F00101010F0000000001F101010101A
:100430001F10101010F010000000FF10101010100E
:1004400010101010FF10000000FF140000FF00FF4C
:1004500000001F10170000FC04F4141417101714E8
:1004600014F404F40000FF00F7141414141414140A
:10047000F700F7141414171410101F101F1414147D
:10048000F4141010F010F000001F101F0000001FE7
:1004900014000000FC140000F010F01010FF10FF1A
:1004A000141414FF141010101F00000000F010FFAF
:1004B000FFFFFFFFF0F0F0F0F0FFFFFF0000000093
:1004C00000FFFF0F0F0F0F0F3844443844FC4A4A17
:1004D0004A347E02020606027E027E0263554941CC
:1004E000633844443C04407E201E2006027E020203
:1004F00099A5E7A5991C2A492A1C4C7201724C3017
:100500004A4D4D303048784830BC625A463D3E49ED
:100510004949007E0101017E2A2A2A2A2A44445F91
:10052000444440514A444040444A51400000FF0185
:1005300003E080FF000008086B6B08361236243693
:10054000060F090F060000181800000010100030F8
:1005500040FF0101001F01011E00191D1712003C80
:100560003C3C3C00000000000001020304050608BA
:10057000090A0B0D0E1012131517191B1D20222529
:10058000272A2D3033373A3E4145494D52565B5F5D
:1005900064696E74797F858B91979DA4ABB2B9C065
:1005A000C7CFD6DEE6EEF7FF000102030507090B11
:1005B0000E1114181D22282E363D464F59646F7CAB
:1005C0008997A6B6C7D9EBFF0000000024002700DA
:1005D0002A0000000000250028002B000000000079
:1005E0002300260029000404040404040404020275
:1005F00002020202030303030303010204081020A2
:1006000040800102040810200102040810200000AC
:1006100000080002010000030407000000000000C1
:100620000000CA0E9E0E11241FBECFEFD8E0DEBF21
:10063000CDBF22E0A0E7B1E001C01D92AF34B20708
:10064000E1F711E0A0E0B1E0E4E3F9E202C00590D7
:100650000D92A037B107D9F713E0C2E1D3E004C08F
:100660002197FE010E949612C131D107C9F70E945D
:1006700064100C948D140C940000FC01EF2FFF27E4
:10068000E695E695E695E855FA4F2491FC0135E0AC
:10069000F695E7953A95E1F7EF73FF27E859FA4F9A
:1006A00064918F719927FC01E855FA4FE491862FE8
:1006B00090E0A0E0B0E0BA2FA92F982F8827A22BB6
:1006C000BC01CD016E2B089508952F923F924F9259
:1006D0005F926F927F928F929F92AF92BF92CF92D2
:1006E000DF92EF92FF920F931F93CF93DF93CDB7DB
:1006F000DEB76B970FB6F894DEBF0FBECDBF4C01CF
:100700005A8349831F830E83FD82EC82CB82DC01F6
:1007100058964D915C9159974115510509F0A5C026
:1007200018968D919C911997681779070CF05AC10A
:100730001A968D919C911B97E981FA81E817F90728
:100740000CF050C1D12CCB013B81F6E03F9F800DD6
:10075000911D1124181619060CF044C1C60133E08E
:10076000880F991F3A95E1F749815A81840F951FA7
:10077000181619060CF036C157968C91811103C0DA
:10078000203B08F02F5F55E0259F900111247E87C4
:100790006D875B01212CC901861B970B9987888780
:1007A000A981BA811896BB87AA87B5E02B1641F0BC
:1007B000E885F985EA0DFB1DE859FF4F349001C02B
:1007C000312C69807A80230130FE12C0D401ED9172
:1007D000FC91BB81B13031F40480F581E02D2E8194
:1007E0003F8118C00684F785E02DEE80FF801CC095
:1007F000EC81FD812E813F81E217F307E1F0D40106
:10080000ED91FC91BB81B13051F40480F581E02D74
:100810002C813D81A301B501C40109950CC006845A
:10082000F785E02DEC80FD8086019601A2016D85A3
:100830007E85C40109953694EFEF6E1A7E0A4C0C42
:100840005D1C2A853B856216730609F0BDCF239493
:100850003FEFA31AB30A4D855E854C0D5D1D5E8783
:100860004D8756E02512A1CFBDC0FA0134963491D0
:10087000329785919491231BA7E02A9F800D911DAB
:100880001124FA01259134913A8B298BFC01259092
:100890003490FC01329634913887319644914C87DC
:1008A0003196E491FC013596A491319684915B8157
:1008B000523050F06A2E0A2E000C7708E82F082ECE
:1008C000000CFF0BFB87EA87FB81CF2ED12C6C9CA1
:1008D00090016D9C300D7C9C300D1124A901460FB8
:1008E000571F588B4F871C82A12CEA2FAA0FFF0B92
:1008F0003B016E0E7F1E5885650F711DDB01AE0F2B
:10090000BF1FBF8BAE8BE981FA81E80FF11D87FD18
:10091000FA95F98FE88F9C85A91608F063C08A2D97
:1009200090E04A855B85480F591F4C9D90014D9D75
:10093000300D5C9D300D1124A981BA81A20FB31F27
:10094000BE87AD877B8E6A8E4F845888BC81B6196E
:10095000BB8BE88DF98DE80FF91FFD8BEC8B8B8934
:10096000FA8D8F0F2A8D3B8D4E895F8924173507AD
:1009700099F1877041F4C1010196E989FA89E20D84
:10098000F31DB4901C01B7FE1EC0D401ED91FC9183
:10099000BB81B13061F40480F581E02D2E813F816F
:1009A0004C895D896A8D7B8DC40109950CC00684D4
:1009B000F785E02DEE80FF80860196014D855E85EE
:1009C000B201C4010995BB0CEA8DFB8D3196FB8FFA
:1009D000EA8F4C0C5D1CC3CF5C818885580F5C830B
:1009E000A39499CF6B960FB6F894DEBF0FBECDBF20
:1009F000DF91CF911F910F91FF90EF90DF90CF90FB
:100A0000BF90AF909F908F907F906F905F904F902E
:100A10003F902F900895AF92BF92CF92EF92FF92A6
:100A20000F931F93CF93DF93EC01262F888D998D21
:100A3000009709F042C06A3069F42C898E859F8541
:100A400038E0239F800D911D11249F878E871D867E
:100A50001C86ACC06D3009F4A9C08E898823C1F012
:100A60003C898C859D8546E0349F800D911D112425
:100A700048855985841795075CF01D861C868E85F0
:100A80009F85E8E03E9F800D911D11249F878E87F2
:100A9000EA88FB88088919894E855F856C857D8584
:100AA000CC88CE010E9465032C898C859D85F6E05B
:100AB0002F9F800D911D112441C06A3079F41D864D
:100AC0001C862C89FC013696E4918E859F852E9F8D
:100AD000800D911D11249F878E8768C06D3009F4A9
:100AE00065C0AC014C5F5F4FFA013491631708F4A5
:100AF0005DC03196E491E61708F458C0FA014491BC
:100B0000362F341BFC013296A590B490F7E03F9F3E
:100B1000A00CB11C1124F501329634913196E49168
:100B2000332311F0E1110DC0F5013496E4912C89C5
:100B30008C859D85E29F800D911D11249D878C875A
:100B400035C0F501359644915E89552311F16C89C4
:100B5000E32FF0E0E40FF11D47FDFA956E9FD00101
:100B60006F9FB00D11244C855D854A0F5B1FE88592
:100B7000F9854E175F076CF01D861C86FC013696C2
:100B8000E4918E859F856E9F800D911D11249F8716
:100B90008E87EA88FB88088919894E855F856C8570
:100BA0007D85CC88CE010E946503BECF81E090E0B8
:100BB000DF91CF911F910F91FF90EF90CF90BF9059
:100BC000AF900895EF92FF920F931F93DC01ED9188
:100BD000FC9111971A960D911C911B9718962D91C7
:100BE0003C9119970684F785E02D7B0140E050E0A9
:100BF00060E070E009951F910F91FF90EF900895CC
:100C00006F927F928F929F92AF92BF92CF92DF921C
:100C1000EF92FF920F931F93CF93DF936C015A01D2
:100C20004801EB013B01620E731EC615D70574F433
:100C3000D601ED91FC910084F185E02D87019401AE
:100C4000A501BE01C60109952196EFCFDF91CF9195
:100C50001F910F91FF90EF90DF90CF90BF90AF90DA
:100C60009F908F907F906F900895EF92FF920F93D7
:100C70001F93DC01ED91FC91260F371F21503109A4
:100C80000680F781E02D78018A0109951F910F9167
:100C9000FF90EF900895EF92FF920F931F937801CA
:100CA000DC01ED91FC91240F351F890101501109E0
:100CB0000680F781E02D9B0109951F910F91FF9010
:100CC000EF9008956F927F928F929F92AF92BF9212
:100CD000CF92DF92EF92FF920F931F93CF93DF9308
:100CE000EC014B015A0169013801E881F981028464
:100CF000F385E02D87010995E881F981A501460D6D
:100D0000571D415051090284F385E02D9601B4012D
:100D1000CE010995E881F9810084F185E02D9301E8
:100D2000A501B401CE010995E881F981C80CD91C4F
:100D3000B601615071090084F185E02D9301A50190
:100D4000CE010995DF91CF911F910F91FF90EF9008
:100D5000DF90CF90BF90AF909F908F907F906F90DB
:100D600008952F923F924F925F926F927F928F924F
:100D70009F92AF92BF92CF92DF92EF92FF920F932A
:100D80001F93CF93DF9300D01F92CDB7DEB74C01F6
:100D90007B836A836A01590117019801241B350B73
:100DA00037FF03C0319521953109C5014A815B8127
:100DB000841B950B97FF03C091958195910951E094
:100DC00059838217930714F019820BC09A2D8B2D2B
:100DD0005801092F182F9A818B81DB82CA82C92E74
:100DE000D82E8A819B81A816B9065CF49C2D8D2D86
:100DF0006801092F182F9A818B81BB82AA82A92EA4
:100E0000B82E2501AA81BB814A1A5B0A38016C18E9
:100E10007D0877FE03C0719461947108720157FEDA
:100E200003C0BFEFEB1AFB0AF594E794C016D10696
:100E30001CF00FEF1FEF1FC001E010E01CC0D40139
:100E4000ED91FC91B9810480F581E02D9101BB23E6
:100E5000C1F04A815B81B601C4010995E618F70823
:100E6000F7FE04C0C00ED11EE40CF51CEA81FB8124
:100E70003196FB83EA834A815B81A416B506FCF6B2
:100E800004C0A6016A817B81E7CF0F900F900F907D
:100E9000DF91CF911F910F91FF90EF90DF90CF9056
:100EA000BF90AF909F908F907F906F905F904F908A
:100EB0003F902F90089570E09C01232F33272695B3
:100EC00026952695269FA001279F500D369F500DF1
:100ED000112420E030E0352F330F330F330FAC01F6
:100EE0004F715527469FF001479FF00D569FF00D1B
:100EF0001124EF2FFF27E20FF31F9C01207E377094
:100F0000A5E036952795AA95E1F7269FA001279F92
:100F1000500D369F500D1124252F3327C90125E090
:100F2000880F991F2A95E1F78E0F9F1F08954F9202
:100F30005F926F927F928F929F92AF92BF92CF9269
:100F4000DF92EF92FF920F931F93CF93DF938C0169
:100F5000EB017A01590177FD2CC157FD2AC1DC0153
:100F600018968D919C911997681779070CF021C1FB
:100F70001A968D919C911B97481759070CF019C12F
:100F800055968C915597823071F08330E1F0813025
:100F900011F514968D919C9115970197841B950BD3
:100FA0007B01EC0118C0F8018481958101979C01B7
:100FB000261B370BE901868197810197DC01A41B71
:100FC000B50B7D0108C0F801868197810197861BCA
:100FD000970BEA017C01D801D496ED91FC91D5974D
:100FE000309739F0B701CE010995EC01C12CD12C15
:100FF000B2C0F80147A5F42FF3707F2ED801D29626
:101000006C90D297662009F464C0D0964C90842CE2
:10101000912CCE01B4010E9482126B01F80151A8FB
:10102000252D30E0C701B9010E948212FB01C89C46
:10103000C001C99C900DD89C900D1124C81BD90BE0
:10104000629FC001639F900D729F900D1124E81A5A
:10105000F90A45FF07C0862D90E001979C012C19E5
:101060003D09690144FF07C0D801D396EC91F0E037
:101070003197E61BF70B46FD08C0262D30E09E2F6A
:101080008F2FF601C92ED82E05C0D801D3966C90AB
:10109000262D30E047FF09C0C0FE07C083E0782658
:1010A000E095F095BFEFCB1ADB0A2C9DC0012D9D7A
:1010B000900D3C9D900D1124E80FF91F549C2001C8
:1010C00011244E9E60014F9ED00C5E9ED00C1124C8
:1010D00002C0C12CD12C9E01C70171FE09C0F801CC
:1010E00060A970E061507109DB01AC1BBD0B9D0173
:1010F00070FE06C0F80181A990E001978E199F0942
:10110000D80142FD09C0D096EC91F0E0682F592F2C
:10111000C901262F352F03C0D196EC91F0E043FF93
:1011200011C020FF0FC080959095E9012196CE9FB8
:101130009001CF9F300DDE9F300D1124EC01C20FC6
:10114000D31F09C0E29FE001E39FD00DF29FD00DB5
:101150001124C80FD91FF80182AD882329F026A9D0
:1011600037A940AD51AD05C0C5010E943D039B01AB
:10117000AC01C6018C0F9D1FD8015C966D917C91CE
:101180005D9786179707A8F4BC01C8014A96DF91BE
:10119000CF911F910F91FF90EF90DF90CF90BF9074
:1011A000AF909F908F907F906F905F904F900C9436
:1011B000380EDF91CF911F910F91FF90EF90DF904C
:1011C000CF90BF90AF909F908F907F906F905F90E7
:1011D0004F9008958F929F92AF92BF92CF92DF92DD
:1011E000EF92FF920F931F93CF93DF938C01CB016C
:1011F000F80122AD222329F086A897A8A0ACB1ACB3
:1012000004C00E943D034B015C016801FAE1CF0E6E
:10121000D11CF801E48CF58CC0E0D0E0CE15DF05E0
:1012200071F0F801848D958DC817D90730F4A501A8
:101230009401BE01C6010E94380E2196EFCFDF91C6
:10124000CF911F910F91FF90EF90DF90CF90BF90C3
:10125000AF909F908F900895862F0C94340D862F19
:10126000642F0C945D0D862F642F0C948D0DEF92DE
:10127000FF920F931F93CF93DF93EC017B018A01C1
:1012800088E090E00E949C12FC01F182E0821383CE
:1012900002831582148217821682A881B981109761
:1012A00029F4998388839B838A8308C0B583A483A8
:1012B00017969C938E93169799838883DF91CF918D
:1012C0001F910F91FF90EF9008950F931F93CF936D
:1012D000DF9300D000D0CDB7DEB78C01D8011A96CD
:1012E000ED91FC911B9720853185032E000C440B5A
:1012F000550B211531054105510571F029833A83BC
:101300004B835C830E941C1429813A814B815C8150
:101310000E942A149B01AC01F801378F268F0284AA
:10132000F385E02D22853385032E000C440B550BED
:10133000211531054105510571F029833A834B830D
:101340005C830E941C1429813A814B815C810E943C
:101350002A149B01AC01C901D80191963C932E93AC
:1013600090975A96ED91FC915B973097A1F0408150
:101370005181D8015E962D913C915F97421753079A
:1013800031F4228133812817390709F4A7CF04806B
:10139000F581E02DEACF0F900F900F900F90DF9125
:1013A000CF911F910F9108950F931F93CF93DF93C8
:1013B000EC0181E090E0998F888F8E01065E1F4FCF
:1013C00040E050E060E070E0C8010E94370940E072
:1013D00050E061E070E0C8010E94370940E050E051
:1013E00062E070E0C8010E9437098E899F890196EA
:1013F0002C893D898217930718F49F8B8E8B02C02E
:101400001F8A1E8A0E891F89000F111F8A899B89D6
:10141000080F191F60E8F801808191810E945B0725
:101420009F878E8760E4F801808191810E945B072D
:10143000998B888BCE01DF91CF911F910F910C94E6
:1014400065098F929F92AF92BF92EF92FF920F9396
:101450001F93CF93DF93CDB7DEB729970FB6F894DC
:10146000DEBF0FBECDBF8C01DC011A968D919C9121
:101470001B97DC01ED91FC910088F189E02D60E083
:1014800070E00995F80182859385DC01ED91FC916E
:10149000D8011E962D913C911F9790964D915C918D
:1014A00091975E966D917C915F970480F581E02D18
:1014B0000995F801E28CF38CF801A28DB38DE1144B
:1014C000F10421F1F80182859385FC0120813181AD
:1014D000F901A480B580EA16FB0631F4D8011E9606
:1014E0002D913C911F9703C0F80120893189D701C4
:1014F00012964D915C9113976D917C91F501099530
:10150000D7011496ED90FC901597D6CF268D378D88
:101510008D919C9111972817390771F420A131A161
:1015200012968D919C9113972817390729F481E021
:1015300086A3C8010E9465098091D2018111109291
:10154000D201D8015A96ED91FC915B97428153816B
:101550006081718158962D913C915997D9011297CC
:101560001297D0F4982F9B7F933311F0823451F46B
:1015700081E090E0D80159969C938E9358976F5FC5
:101580007F4F2EC0913311F0893321F5D801599640
:101590001C921E9258973AC022303105D8F49FEB26
:1015A000980F923010F0893351F483E090E0D80125
:1015B00059969C938E9358974F5F5F4F40C08153CD
:1015C000833040F482E090E0D80159969C938E934A
:1015D000589743C02130310599F46F5F7F4FD80190
:1015E0001A968D919C911B97DC0118968D919C9178
:1015F0001997681779070CF448C060E070E045C09F
:10160000223031059CF4232B09F03FC01616170633
:1016100054F0D8011A968D919C911B97DC01189675
:101620006D917C911997615071092FC0223031055D
:10163000A1F02330310549F54F5F5F4FD8011A966D
:101640008D919C911B97DC011A968D919C911B9713
:10165000481759070CF0E9C018C01416150654F0C5
:10166000D8011A968D919C911B97DC011A964D9189
:101670005C911B974150510908C080819181861768
:10168000970731F00480F581E02D3097B1F7D0C095
:101690008281938184179507A9F7F801828D938D34
:1016A000009759F0FC0124813581D8015B963C9369
:1016B0002E935A970E943113F0CF158E148EC801C5
:1016C0000E94D409D8011A960D911C911B9778019C
:1016D000BAE1EB0EF11CF80182A193A1892B09F468
:1016E000CFC00E94C90DD80198968D909D90AD9065
:1016F000BC909B97DC01CB0188199909AA09BB0909
:10170000C297A105B10568F3F894F801868D978D0D
:101710009A83898302A0F3A1E02D5F018FEFA81ABD
:10172000B80A80818987D8015A969C915A979C96CD
:10173000ED91FC919D979E968C91992309F430C070
:101740009081982B98879081809589238F838F81B2
:101750008C8388E08B8358856F8149853B812C8100
:1017600089819A81D501508347FD252F3A952083A1
:10177000262F39F0441F00C000006083000000C025
:10178000F2CF38E04D9160830000019761F7D701F7
:101790005396FC93EE93529749873B832C833AC030
:1017A0009081982B98879081809589238F838F8152
:1017B0008E8388E08D8358856F8149853D812E8198
:1017C00089819A81D501508347FD252F00C000C033
:1017D000208300C000C000C000C000C060830000C3
:1017E000262F3A9541F0441F000000C000C000C001
:1017F00000C000C0E8CF38E04D9100C0608300C059
:10180000019709F7D7015396FC93EE9352974987B6
:101810003D832E839A83898378940E94C90DF801B1
:1018200060A771A782A793A72BC040E050E02DCFFF
:10183000C8014A960E943709D80196968C91811169
:101840001BC0F801848D958D009709F43BCFDC0116
:101850001696ED91FC911797D8015D96FC93EE9347
:101860005C97309719F01582148203C0F801138E2B
:10187000128E0E94311326CFD80196961C9222CF49
:1018800029960FB6F894DEBF0FBECDBFDF91CF9182
:101890001F910F91FF90EF90BF90AF909F908F900E
:1018A000089596E0899FD0011124AD52BE4F9096C5
:1018B0007C936E935F9791E091969C939197909112
:1018C0003F02E0914002F0914102992339F03097B4
:1018D00051F0811108C08091EF0104C0309719F0D8
:1018E0005C968C9109940895CF92DF92EF92FF92CB
:1018F0000F931F93CF93DF936C017A018B01C0E0AC
:10190000D0E0CE15DF0589F0D8016D918D01D601AB
:10191000ED91FC910190F081E02DC6010995892B94
:1019200011F47E0102C02196ECCFC701DF91CF9167
:101930001F910F91FF90EF90DF90CF90089583302B
:1019400081F028F4813099F08230A1F00895873039
:10195000A9F08830B9F08430D1F4809180008F7D77
:1019600003C0809180008F7780938000089584B5B4
:101970008F7702C084B58F7D84BD08958091B000BB
:101980008F7703C08091B0008F7D8093B000089561
:101990002FB7F89460914302709144028091450200
:1019A000909146022FBF08950F931F93CF93DF931B
:1019B000C82FD62F86E0C89FF0011124ED52FE4FAC
:1019C00011A2878D90A181309105F1F01CF4892B33
:1019D00049F043C082309105A9F10397F1F560E029
:1019E00070E034C06623C9F161E070E08C2F0E9482
:1019F000510C0E94C80C60932B0270932C028093B0
:101A00002D0290932E0229C00E94C80C00912B0237
:101A100010912C0220912D0230912E02AB01BC01BD
:101A2000401B510B620B730B80913D0290913E0263
:101A3000A0E0B0E084179507A607B70718F462E0A6
:101A400070E004C0D11109C063E070E08C2FDF9119
:101A5000CF911F910F910C94510CDF91CF911F9159
:101A60000F9108950E94C913CF93DF93282F30E080
:101A7000F901E25FF94F8491F901E650FA4FD491F0
:101A8000F901EA51FA4FC491CC2391F081110E94DF
:101A90009F0CEC2FF0E0EE0FFF1FE452FA4FA591E0
:101AA000B491EC91ED2381E090E021F480E002C05C
:101AB00080E090E0DF91CF9108951F93CF93DF9363
:101AC000282F30E0F901E25FF94F8491F901E650E7
:101AD000FA4FD491F901EA51FA4FC491CC23C9F0DD
:101AE000162F81110E949F0CEC2FF0E0EE0FFF1FCC
:101AF000EE52FA4FA591B4918FB7F894111105C029
:101B00009C91ED2FE095E92302C0EC91ED2BEC9335
:101B10008FBFDF91CF911F910895CF93DF9390E016
:101B2000FC01E650FA4F2491FC01EA51FA4F8491EE
:101B3000882361F190E0880F991FFC01E853FA4F68
:101B4000C591D491FC01EE52FA4FA591B491611167
:101B500009C09FB7F8948881209582238883EC91EF
:101B60002E230BC0623061F49FB7F8943881822F26
:101B7000809583238883EC912E2B2C939FBF06C0E6
:101B80008FB7F894E8812E2B28838FBFDF91CF91F8
:101B900008953FB7F8948091470290914802A09130
:101BA0004902B0914A0226B5A89B05C02F3F19F003
:101BB0000196A11DB11D3FBFBA2FA92F982F8827CD
:101BC000820F911DA11DB11DBC01CD0142E0660F28
:101BD000771F881F991F4A95D1F708951F920F927A
:101BE0000FB60F9211242F933F938F939F93AF9330
:101BF000BF938091430290914402A0914502B0911D
:101C000046023091420223E0230F2D3720F4019643
:101C1000A11DB11D05C026E8230F0296A11DB11D0F
:101C2000209342028093430290934402A093450282
:101C3000B09346028091470290914802A0914902D8
:101C4000B0914A020196A11DB11D80934702909365
:101C50004802A0934902B0934A02BF91AF919F916D
:101C60008F913F912F910F900FBE0F901F9018955D
:101C70008F929F92AF92BF92CF92DF92EF92FF929C
:101C80000F931F93CF93DF93FC014A01AA24BB2437
:101C9000B82DC32ED42EE52EFF24AC2D922F878194
:101CA000882361F0889E40011124B92DC89E6001EF
:101CB0001124AD2D289FE00111249D2FD584C285CC
:101CC000E084F184DC1208C09B01220F331F620FF5
:101CD000731F6E0D7F1D16C0660F771F660F771F6F
:101CE0006E0D7F1D052F112722273327EB01CD0D08
:101CF000D11D882329F0089F90011124232F01C0B2
:101D0000202F28838285EB01C80FD11DB8838385DE
:101D1000EB01C80FD11DA8838485FB01E80FF11DDD
:101D20009083DF91CF911F910F91FF90EF90DF9003
:101D3000CF90BF90AF909F908F9008958EE691E0E6
:101D40009093AC018093AB018091C5019091C60145
:101D5000009751F0FC01248135813093C601209316
:101D6000C5010E943113F0CF86E591E09093710197
:101D7000809370018091920190919301009711F0EE
:101D80000E9431138091900187FD03C060E00C94A4
:101D90008D0D0895CF93DF9300D000D0CDB7DEB77F
:101DA0001092D5011092D9011092D8011092DA0147
:101DB0008CE491E09093D4018093D30180E090E093
:101DC000FC01ED52FE4F148E10A2178E11A2069642
:101DD0008C339105A9F782E191E0909336028093CC
:101DE00035028EE091E0909338028093370284E0D0
:101DF0008093390280933A0286E191E09093340215
:101E0000809333028AE090E090933C0280933B02FF
:101E100084EF91E090933E0280933D021092410244
:101E20001092400210922F02109230021092310252
:101E30001092320210923F021092730110927201BE
:101E400084E391E0909371018093700128E030E089
:101E5000309375012093740185E090E090937701B1
:101E600080937601309379012093780190937B01E0
:101E700080937A011092850110927D0110927C016D
:101E800010927F0110927E0181E0809384012FEFF8
:101E90003FEF30938301209382013093810120939F
:101EA000800180938601109287011092890110921F
:101EB000880110928B01109291011092980110925A
:101EC000990110929A0110929B018093970180933F
:101ED00094011092950192E09093960180938A016B
:101EE00088E790E090938F0180938E010E949C126E
:101EF0009093930180939201009761F028E7FC0191
:101F000011922A95E9F788E290E090938D018093F1
:101F10008C0108C010928F0110928E0110928D01D9
:101F200010928C018EE08093900180918B01882328
:101F300041F061E08EE00E948D0D60E08EE00E9435
:101F40005D0DE4EFF5E0E491F0E0EE0FFF1FEE52DF
:101F5000FA4F8591949190939D0180939C01E8E0C4
:101F6000F6E0E491E0939E0186E591E090937101A3
:101F70008093700110929F0188E08093A00185E01A
:101F80008093A1011092A2011092A3011092A501C9
:101F90001092A4011092AA018CE291E0A0E0B0E0BE
:101FA0008093AD019093AE01A093AF01B093B001C7
:101FB0001092B1011092B2011092B3011092B401CB
:101FC0008EE691E09093AC018093AB0180E791E0C5
:101FD0009093B6018093B50183ED91E09093B801A1
:101FE0008093B70180E091E09093BE018093BD01A2
:101FF00087E090E09093C0018093BF011092C601EA
:102000001092C5011092C8011092C7011092CA0126
:102010001092C9011092CC011092CB011092CE0106
:102020001092CD011092D0011092CF012091780131
:1020300030917901032E000C440B550B211531050D
:102040004105510571F029833A834B835C830E94DB
:102050001C1429813A814B815C810E942A149B01C6
:10206000AC013093CA012093C901E091B501F09110
:10207000B60122853385032E000C440B550B211528
:1020800031054105510571F029833A834B835C8307
:102090000E941C1429813A814B815C810E942A1480
:1020A0009B01AC013093CC012093CB011092C20173
:1020B0001092C1018BEA91E00F900F900F900F905A
:1020C000DF91CF910C94D409789484B5826084BD5B
:1020D00084B5816084BD85B5826085BD85B581602C
:1020E00085BD80916E00816080936E0010928100AA
:1020F0008091810082608093810080918100816065
:102100008093810080918000816080938000809125
:10211000B10084608093B1008091B00081608093B1
:10212000B00080917A00846080937A0080917A0078
:10213000826080937A0080917A00816080937A0037
:1021400080917A00806880937A001092C10080911B
:10215000900187FD08C061E00E948D0D60E08091D4
:1021600090010E945D0D81E080938B01609191014F
:10217000613421F12091920130919301615031F04D
:1021800070E08FEF90E40E946E1202C060E070E099
:10219000F90140918E0150918F01CF01821B930B69
:1021A0008417950740F44081469FC001479F900DDA
:1021B00011249193EECF81E48093910160E070E06F
:1021C00080E791E00E94EA0884E690E090933E0266
:1021D00080933D0280E480937C0080917A0080644B
:1021E00080937A0080917A0086FDFCCF6091780020
:1021F0008091790070E0782B072E000C880B990BEA
:10220000611571058105910511F00E942114412C81
:10221000512C32014394CC24CA94DC2C81E080936D
:102220003F020E94C80C00912F02109130022091B1
:10223000310230913202AB01BC01401B510B620BE9
:10224000730B80913B0290913C02A0E0B0E08417B8
:102250009507A607B70708F008C1C0E080913902CA
:10226000C81760F4E0913502F0913602EC0FF11DD1
:1022700062E080810E948D0DCF5FF0CF912C809124
:102280003A02981608F05FC0092D10E0E09137027D
:10229000F0913802E00FF11F61E080810E948D0D06
:1022A000E0913702F0913802E00FF11F60E0808189
:1022B0000E945D0DD301C201092C04C0880F991F33
:1022C000AA1FBB1F0A94D2F75C017C01E094F09432
:1022D000812C809139028816F8F4C82DD0E0E09165
:1022E0003502F0913602EC0FFD1F80810E94340D03
:1022F0002496CC0FDD1FCD52DE4F892B29F4888127
:1023000099818A299B2904C0888199818E219F21E6
:10231000998388838394DDCFE0913702F09138026E
:10232000E00FF11F61E080810E945D0D8091370216
:1023300090913802FC01E00FF11F60E080810E9463
:102340008D0D93949CCFEFEEF1E083819481892BE6
:1023500021F41082D282C1821582369682E0EB325D
:10236000F80799F710E006E080913902181708F095
:1023700052C0F12CC12FD0E0CC0FDD1FC552DE4F73
:1023800020913A02F21608F044C0688179810F2C3E
:1023900002C0769567950A94E2F761707727129FDD
:1023A000900111242F0D311DE0913302F091340280
:1023B000E20FF31FA081E3EDF1E080E0458D568D43
:1023C0004217530711F461701AC08F5F36968A3036
:1023D000A9F7672BE1F0EFEEF1E080E090E04081BB
:1023E000411110C0089FF001099FF00D1124ED521A
:1023F000FE4FA48F368F258F10A2178E61E00E94AA
:10240000D40C05C0019636968A30910541F7F394B5
:10241000B7CF1F5FA9CF80E090E0C0E0FC01ED5294
:10242000FE4F21A12111C1E006968C339105B1F731
:102430000E94C80C60932F02709330028093310287
:1024400090933202CC2389F08091F401882369F0C3
:102450008091F2019091F301019739F48091EF019D
:10246000882329F08093D20102C010923F020E947B
:10247000C80C0091B1011091B2012091B3013091CB
:10248000B4014B015C01801A910AA20AB30A0091BF
:10249000AD011091AE012091AF013091B0018016D5
:1024A0009106A206B30690F06093B1017093B20159
:1024B0008093B3019093B401E091AB01F091AC0132
:1024C0000190F081E02D8BEA91E0099580E090E0A9
:1024D000892B09F4A3CE0E940000A0CEAA1BBB1B2F
:1024E00051E107C0AA1FBB1FA617B70710F0A61B14
:1024F000B70B881F991F5A95A9F780959095BC0135
:10250000CD01089597FB072E16F4009407D077FDB0
:1025100009D00E946E1207FC05D03EF4909581957B
:102520009F4F0895709561957F4F0895EE0FFF1F9F
:102530000590F491E02D0994CF93DF9382309105BB
:1025400010F482E090E0E0914D02F0914E0220E024
:1025500030E0C0E0D0E0309711F140815181481760
:102560005907C0F04817590761F482819381209779
:1025700019F09B838A832BC090934E0280934D0267
:1025800026C02115310519F04217530718F49A0196
:10259000BE01DF01EF010280F381E02DDCCF2115C8
:1025A000310509F1281B390B2430310590F41296BE
:1025B0008D919C9113976115710521F0FB01938317
:1025C000828304C090934E0280934D02FD013296A7
:1025D00044C0FD01E20FF31F819391932250310912
:1025E0002D933C933AC020914B0230914C02232B07
:1025F00041F4209128013091290130934C0220931D
:102600004B0220912601309127012115310541F41B
:102610002DB73EB740912A0150912B01241B350B59
:10262000E0914B02F0914C02E217F307A0F42E1B4D
:102630003F0B2817390778F0AC014E5F5F4F241726
:10264000350748F04E0F5F1F50934C0240934B02EA
:102650008193919302C0E0E0F0E0CF01DF91CF9150
:1026600008950F931F93CF93DF93009709F48CC0C5
:10267000FC0132971382128200914D0210914E029A
:102680000115110581F420813181820F931F209162
:102690004B0230914C022817390779F5F0934C0220
:1026A000E0934B0271C0D80140E050E0AE17BF0785
:1026B00050F412962D913C911397AD0121153105DF
:1026C00009F1D901F3CF9D01DA01338322836081BF
:1026D0007181860F971F8217930769F4EC01288197
:1026E0003981260F371F2E5F3F4F318320838A8128
:1026F0009B8193838283452B29F4F0934E02E093D0
:102700004D0242C01396FC93EE931297ED0149914E
:1027100059919E01240F351FE217F30771F4808150
:102720009181840F951F029611969C938E938281BE
:10273000938113969C938E931297E0E0F0E0D8017A
:1027400012968D919C911397009719F0F8018C01C6
:10275000F6CF8D919C9198012E5F3F4F820F931F72
:1027600020914B0230914C022817390769F43097B9
:1027700029F410924E0210924D0202C0138212826E
:1027800010934C0200934B02DF91CF911F910F9158
:10279000089581E090E0F8940C948D148F929F92AC
:1027A000AF92BF92CF92DF92EF92FF92CF93DF93DF
:1027B000EC01688179818A819B81611571058105B0
:1027C000910521F464E279ED8BE597E02DE133EF9B
:1027D00041E050E00E942A1449015A019B01AC01DA
:1027E000A7EAB1E40E9449146B017C01ACEEB4EF9E
:1027F000A50194010E945714DC01CB018C0D9D1D95
:10280000AE1DBF1DB7FF03C00197A109B048888363
:102810009983AA83BB83BC01CD019F77DF91CF91C0
:10282000FF90EF90DF90CF90BF90AF909F908F90F0
:1028300008950E94CE1308958CE291E00E94CE1379
:10284000089560932C0170932D0180932E01909335
:102850002F010895052E97FB1EF400940E94411449
:1028600057FD07D00E945C1407FC03D04EF40C9473
:10287000411450954095309521953F4F4F4F5F4FF4
:10288000089590958095709561957F4F8F4F9F4FDC
:1028900008950E947E14A59F900DB49F900DA49F53
:1028A000800D911D11240895B7FF0C9449140E94C6
:1028B0004914821B930B0895A1E21A2EAA1BBB1B7D
:1028C000FD010DC0AA1FBB1FEE1FFF1FA217B307FC
:1028D000E407F50720F0A21BB30BE40BF50B661F12
:1028E000771F881F991F1A9469F7609570958095D6
:1028F00090959B01AC01BD01CF010895A29FB0014D
:10290000B39FC001A39F700D811D1124911DB29F23
:10291000700D811D1124911D089513E0C2E1D3E0D3
:1029200004C0FE010E9496122196C331D107C9F757
:04293000F894FFCF49
:1029340000F800FCE0FFE0071F001F801FF80607F7
:102944000809050403023132333435363738394146
:1029540042434445464700004F0280000100000006
:10296400000000000B05740C320DB1064B06350651
:1029740062060006E20564030000000033092F0923
:102984002C09000000000B05740C9707B1064B06D8
:10299400350662060006EA08640300000000210A06
:00000001FF
